:040000005EEF00F0BF
:100008005B82FACF2AF0FBCF2BF0F2AC0EEF00F0B8
:1000180010EF00F058EF00F076AC15EF00F017EF96
:1000280000F022EF00F077AC1CEF00F01EEF00F0BC
:1000380022EF00F083EC0EF058EF00F076A227EFE5
:1000480000F029EF00F034EF00F077A22EEF00F077
:1000580030EF00F034EF00F092EC0EF058EF00F0C3
:1000680076A039EF00F03BEF00F046EF00F077A004
:1000780040EF00F042EF00F046EF00F0A1EC0EF088
:1000880058EF00F09DA04BEF00F04DEF00F058EF57
:1000980000F09EA052EF00F054EF00F058EF00F08F
:1000A800FDEC0DF058EF00F02BC0FBFF2AC0FAFF63
:0800B8005B9211000AEF0DF04C
:100F000000000000000000000000000000EF75007D
:100F10000000000E406E000E416E000E426E000E8C
:100F2000436E0F0120B797EF07F099EF07F013EF2B
:100F300008F020EE01F03E50D9263F50DA22DECFF5
:100F40002CF0DECF2DF0DECF2EF0DECF2FF03EC026
:100F5000D9FF3FC0DAFFDF50306E400E316E000E19
:100F6000326E410E336E000E346E420E356E000E40
:100F7000366E430E376E000E386E16EC0BF040C026
:100F800023FF41C024FF42C021FF43C022FF20EEC7
:100F900005F03E50D9263F50DA22DF500F01256F71
:100FA00020EE06F03E50D9263F50DA22DF50266F61
:100FB00020EE07F03E50D9263F50DA22DF50276F4F
:100FC00020EE08F03E50D9263F50DA22DF50286F3D
:100FD00020EE09F03E50D9263F50DA22DF50296F2B
:100FE00020EE0AF03E50D9263F50DA22DF502A6F19
:100FF00020EE0BF03E50D9263F50DA22DF502B6F07
:1010000020EE0CF03E50D9263F50DA22DF502C6FF4
:1010100020EE0DF03E50D9263F50DA22DF502D6FE2
:10102000208715EF09F010B718EF08F01AEF08F055
:1010300094EF08F020EE01F03E50D9263F50DA221E
:10104000DECF2CF0DECF2DF0DECF2EF0DECF2FF076
:101050003EC0D9FF3FC0DAFFDF50306E400E316E28
:10106000000E326E410E336E000E346E420E356E3F
:10107000000E366E430E376E000E386E16EC0BF017
:1010800040C013FF41C014FF42C011FF43C012FF14
:1010900020EE05F03E50D9263F50DA22DF500F01F6
:1010A000156F20EE06F03E50D9263F50DA22DF5071
:1010B000166F20EE07F03E50D9263F50DA22DF505F
:1010C000176F20EE08F03E50D9263F50DA22DF504D
:1010D000186F20EE09F03E50D9263F50DA22DF503B
:1010E000196F20EE0AF03E50D9263F50DA22DF5029
:1010F0001A6F20EE0BF03E50D9263F50DA22DF5017
:101100001B6F20EE0CF03E50D9263F50DA22DF5004
:101110001C6F20EE0DF03E50D9263F50DA22DF50F2
:101120001D6F108711EF08F000B799EF08F09BEFE3
:1011300008F015EF09F020EE01F03E50D9263F509F
:10114000DA22DECF2CF0DECF2DF0DECF2EF0DECF98
:101150002FF03EC0D9FF3FC0DAFFDF50306E400EA7
:10116000316E000E326E410E336E000E346E420E42
:10117000356E000E366E430E376E000E386E16EC6E
:101180000BF040C003FF41C004FF42C001FF43C059
:1011900002FF20EE05F03E50D9263F50DA22DF5004
:1011A0000F01056F20EE06F03E50D9263F50DA229F
:1011B000DF50066F20EE07F03E50D9263F50DA226E
:1011C000DF50076F20EE08F03E50D9263F50DA225C
:1011D000DF50086F20EE09F03E50D9263F50DA224A
:1011E000DF50096F20EE0AF03E50D9263F50DA2238
:1011F000DF500A6F20EE0BF03E50D9263F50DA2226
:10120000DF500B6F20EE0CF03E50D9263F50DA2213
:10121000DF500C6F20EE0DF03E50D9263F50DA2201
:10122000DF500D6F008711EF08F01200000E436EC3
:1012300060AE1DEF09F01FEF09F0A9EF09F062A6FB
:1012400024EF09F026EF09F045EF09F03FC0D9FF80
:1012500040C0DAFF020EDF6E64CF2CF061CF2DF0BC
:1012600062CF2EF06350D0EC0BF020EE01F03F5037
:10127000D9264050DA222CC0DEFF2DC0DEFF2EC062
:10128000DEFF2FC0DEFF5EEF09F03FC0D9FF40C098
:10129000DAFF010EDF6E62CF2CF0615053EC0DF0DF
:1012A00020EE01F03F50D9264050DA222CC0DEFF5C
:1012B0002DC0DEFF2EC0DEFF2FC0DEFF20EE05F0CA
:1012C0003F50D9264050DA2265CFDFFF20EE06F0EE
:1012D0003F50D9264050DA2266CFDFFF20EE07F0DC
:1012E0003F50D9264050DA2267CFDFFF20EE08F0CA
:1012F0003F50D9264050DA2268CFDFFF20EE09F0B8
:101300003F50D9264050DA2269CFDFFF20EE0AF0A5
:101310003F50D9264050DA226ACFDFFF20EE0BF093
:101320003F50D9264050DA226BCFDFFF20EE0CF081
:101330003F50D9264050DA226CCFDFFF20EE0DF06F
:101340003F50D9264050DA226DCFDFFF609E010E5C
:10135000436E0F0130AFAFEF09F0B1EF09F03CEF92
:101360000AF032A7B6EF09F0B8EF09F0D7EF09F0AD
:1013700041C0D9FF42C0DAFF020EDF6E34CF2CF03D
:1013800031CF2DF032CF2EF03351D0EC0BF020EED8
:1013900001F04150D9264250DA222CC0DEFF2DC088
:1013A000DEFF2EC0DEFF2FC0DEFFF0EF09F041C0F0
:1013B000D9FF42C0DAFF010EDF6E32CF2CF031517F
:1013C00053EC0DF020EE01F04150D9264250DA22C4
:1013D0002CC0DEFF2DC0DEFF2EC0DEFF2FC0DEFFE3
:1013E00020EE05F04150D9264250DA2235CFDFFFFA
:1013F00020EE06F04150D9264250DA2236CFDFFFE8
:1014000020EE07F04150D9264250DA2237CFDFFFD5
:1014100020EE08F04150D9264250DA2238CFDFFFC3
:1014200020EE09F04150D9264250DA2239CFDFFFB1
:1014300020EE0AF04150D9264250DA223ACFDFFF9F
:1014400020EE0BF04150D9264250DA223BCFDFFF8D
:1014500020EE0CF04150D9264250DA223CCFDFFF7B
:1014600020EE0DF04150D9264250DA223DCFDFFF69
:101470000F01309F020E436E43501200B9EC0EF084
:10148000CBEC0DF07F0B446E4450D8A44AEF0AF029
:101490004CEF0AF04EEF0AF0010E446E44506DEC32
:1014A0000CF0000E0001F26F060EF36F4450F46F63
:1014B000F56BF251F427F351F523F4C0BFF0F5C0FA
:1014C000C0F0000EC0BFFF0EC16FC26F800EF26F82
:1014D000050EF36F4450F46FF56BF251F427F3519E
:1014E000F523F4C0C3F0F5C0C4F0000EC4BFFF0E76
:1014F000C56FC66F44C0C7F0000EF26F020EF36FE7
:101500004450F46FF56BF251F427F351F523F4C016
:10151000D8F0F5C0D9F0000ED9BFFF0EDA6FDB6F3F
:10152000DC69800EF26F010EF36F4450F46FF56BBF
:10153000F251F427F351F523F4C0CDF0F5C0CEF00D
:10154000000ECEBFFF0ECF6FD06FD169000ED66FE9
:10155000000ED56F000ED36F000ED26FBE0E2C6E34
:101560001D0E2D6EDAEC0EF0BE0E2C6E1D0E2D6EC5
:10157000D5EC0EF0E60E2C6E1C0E2D6ECBEC0EF0A4
:10158000F28EF28C010E0001A46F000EF26F070EB6
:10159000F36F4450F46FF56BF251F427F351F523D8
:1015A000F4C0A5F0F5C0A6F0000EA6BFFF0EA76F11
:1015B000A86F010EA96F000EAA6FA40E3E6E000E5A
:1015C0003F6E89EC07F07F0E176E1E50D8B4EBEF1C
:1015D0000AF0EDEF0AF0FAEF0AF0960E3F6E000EF9
:1015E000406E880E416E000E426E16EC09F01D6EC4
:1015F000FAEF0AF017500001F26FF36BF351000A93
:10160000D8B405EF0BF0E5EF0AF0F251040AD8B4B4
:10161000E5EF0AF0010AD8B4E5EF0AF07A0AD8B487
:10162000E5EF0AF0E5EF0AF05EEF00F0020E301889
:10163000D8A41DEF0BF01FEF0BF0A2EF0BF033C09F
:10164000D9FF34C0DAFF2CC0DFFF2CC039F02DC029
:101650003AF02EC03BF02FC03CF03AC039F03BC00E
:101660003AF03CC03BF03C6A39C02CF03AC02DF057
:101670003BC02EF03CC02FF031C0D9FF32C0DAFFA2
:101680002CC0DFFF2CC039F02DC03AF02EC03BF04B
:101690002FC03CF03AC039F03BC03AF03CC03BF0C0
:1016A0003C6A39C02CF03AC02DF03BC02EF03CC053
:1016B0002FF02C50030B3D6E2CC039F02DC03AF0AA
:1016C0002EC03BF02FC03CF0030ED89039363A368E
:1016D0003B363C36E82E65EF0BF039C02CF03AC0B3
:1016E0002DF03BC02EF03CC02FF02C50E00B3D24E1
:1016F0003D6E3D50080F3D6E3D50EB0B37C0D9FF9E
:1017000038C0DAFFDF6E2CC039F02DC03AF02EC0A1
:101710003BF02FC03CF03AC039F03BC03AF03CC03F
:101720003BF03C6A39C02CF03AC02DF03BC02EF0A3
:101730003CC02FF035C0D9FF36C0DAFF2CC0DFFF28
:10174000CFEF0BF031C0D9FF32C0DAFF000EDF6EF1
:1017500033C0D9FF34C0DAFF000EDF6E2CC039F081
:101760002DC03AF02EC03BF02FC03CF0050ED890B3
:1017700039363A363B363C36E82EB7EF0BF039C0F7
:101780002CF03AC02DF03BC02EF03CC02FF037C0FB
:10179000D9FF38C0DAFF2CC0DFFF83EF0BF0120057
:1017A000346E000E3B6E000E3C6E000E3D6E000E61
:1017B0003E6E2E50030B396E2E38E842070B3A6E00
:1017C0002D50306E316AD89030363136D890303660
:1017D0003136D8903036313630C03BF031C03CF035
:1017E000000E3CBEFF0E3D6E3E6E3A503B243B6EFB
:1017F000000E3C203C6E000E3D203D6E000E3E2053
:101800003E6E3BC030F03CC031F03DC032F03EC0D7
:1018100033F0020ED8903036313632363336E82E79
:101820000AEF0CF030C03BF031C03CF032C03DF06C
:1018300033C03EF039503B243B6E000E3C203C6EE2
:10184000000E3D203D6E000E3E203E6E3BC031F04E
:101850003CC032F03DC033F0306A30C03BF031C0A4
:101860003CF032C03DF033C03EF034503B243B6E80
:10187000000E3C203C6E000E3D203D6E000E3E20D2
:101880003E6E3BC031F03CC032F03DC033F0306AB8
:1018900030C03BF031C03CF032C03DF033C03EF0D0
:1018A0002C503B243B6E000E3C203C6E000E3D2035
:1018B0003D6E000E3E203E6E3BC035F03CC036F023
:1018C0003DC037F03EC038F035C02CF036C02DF0AA
:1018D00037C02EF038C02FF012002F6E800E6F6EC2
:1018E0006E50E00B800AD8A478EF0CF07AEF0CF081
:1018F00070EF0CF0000E726E200E706E0E01FA6921
:10190000FB69F869E30EF96FFE69FF691F0EFC6F52
:10191000E30EFD6F000EE26F000EE36F100EE06F3E
:10192000000EE16F000EE66F000EE76F000EE46F31
:10193000000EE56F2FC030F0316A050ED8903036BA
:101940003136E82E9EEF0CF0000EEA6F000EEB6FC2
:101950003150E86F30C0E9FE000E2F24306E316A3E
:10196000030E3122050ED89030363136E82EB3EF13
:101970000CF0000EEE6F000EEF6F3150EC6F30C0C8
:10198000EDFE000E2F24306E316A060E3122050E58
:10199000D89030363136E82EC8EF0CF0000EF26FDA
:1019A000000EF36F3150F06F30C0F1FE000EF66F95
:1019B000000EF76F200EF46F000EF56F000E436FF0
:1019C000980E446F010E456FCE0E2C6E1D0E2D6EBF
:1019D000DAEC0EF077907680CE0E2C6E1D0E2D6E0A
:1019E000D5EC0EF077927682CE0E2C6E1D0E2D6EFB
:1019F000D0EC0EF0779C768C000E6F6E6ECF2EF0D2
:101A0000E00E2E16D8A407EF0DF009EF0DF0FEEF53
:101A10000CF012001E0EF66E1B0EF76E000EF86E26
:101A200001EE00F010EE77F00900F5CFEEFFE55083
:101A3000E150FAE1C00EF66E1C0EF76E000EF86E65
:101A400000EECCF010EE26F00900F5CFEEFFE550E9
:101A5000E150FAE1600EF66E1D0EF76E000EF86EA4
:101A600000EE45F010EE12F00900F5CFEEFFE55064
:101A7000E150FAE101EE77F0100EEE6AE806FDE1C2
:101A800000EE60F06C0EEE6AE806FDE100EE01F09B
:101A9000270EEE6AE806FDE15B905B92000EF86EA1
:101AA00000013EEF0AF0326E3250306E316AD8904B
:101AB00030363136D89030363136D89030363136EF
:101AC00030C037F031C038F0000E38BEFF0E396E2E
:101AD0003A6E2CC030F0050E316ED8903032312E77
:101AE0006DEF0DF030503724376E000E3820386E11
:101AF000000E3920396E000E3A203A6E37C033F0AE
:101B000038C034F039C035F03AC036F033C02CF06C
:101B100034C02DF035C02EF036C02FF0120000106A
:101B200007070D0F0029100807C80000001206164D
:101B3000BE000000140614D700000016061554005D
:101B40000000180614CC0000001A06155100000011
:101B500060070527000002600705260000036007F4
:101B60000525000020620701000000406207010017
:101B700000007062070100000000630706230000F8
:101B800002630706210000086307061F000000002B
:051B9000000000000050
:101B9600000E2D6E8984898289940D0E2C6EFC0EA2
:101BA600E82EFED72C2EFCD78984000E2F6E000E51
:101BB60080B0010E2E6E2F282C6EE4EF0DF0D8901B
:101BC6002E362C2EE2EF0DF02E502D1289920D0E90
:101BD6002C6EFC0EE82EFED72C2EFCD789822F2ADF
:101BE600070E2F64F9EF0DF0FBEF0DF0DAEF0DF0B5
:101BF6002D5012009E9059C028F05AC029F04CEC86
:101C06000EF057505810D8B40BEF0EF00DEF0EF043
:101C16001AEF0EF002D81AEF0EF00500FA6E5750C2
:101C2600FD6E5850FE6EF850FF6EFA50120012000C
:101C3600000EAA6E3C0ECF6EB00ECE6E9E90CE50AB
:101C4600CFCF2EF02F6A2EC02FF02E6A2E10596E8F
:101C56002F505A6E9D80C80E2C6E1D0E2D6ECBEC2D
:101C66000EF0710ECD6E1200000E896E000E8A6E99
:101C7600000E8B6EE10E926E000E936EB00E946E99
:101C86000E0E0F015D6F070E5C6F000E5B6FF18E1F
:101C96001200CDA451EF0EF053EF0EF05BEF0EF0F5
:101CA600CD902950CF6E28C0CEFFCD805FEF0EF0CD
:101CB6002950CF6E28C0CEFF12000500000000009C
:101CC600000000000003000000000000000000000B
:101CD6000101006000000000100100630000000028
:101CE600280E1B6079EF0EF07BEF0EF07EEF0EF004
:101CF6001B2A82EF0EF0000E1B6E010E1A6E1200EA
:101D060002D890EF0EF00500FA6E0F50FD6E1050DF
:101D1600FE6EF850FF6EFA501200779C120002D841
:101D26009FEF0EF00500FA6E1150FD6E1250FE6E1A
:101D3600F850FF6EFA5012007792120002D8AEEFFA
:101D46000EF00500FA6E1350FD6E1450FE6EF8503C
:101D5600FF6EFA5012007790120003C80003B2001B
:101D660003780003770101E20001EA00E2EC0EF0DD
:101D760037EC0EF0C2EC0EF01BEC0EF01200600E0B
:101D8600D36E000ED26E000E9B6E000E9A6E12007F
:101D96002CC057F02DC058F012002CC00FF02DC0EB
:101DA60010F012002CC011F02DC012F012002CC041
:101DB60013F02DC014F01200010E1E6E1200D09EFC
:0C1DC600120012001200120012001200A5
:020000040020DA
:08000000FFFFFFFFFFFFFFFF00
:020000040030CA
:0E00000015087F7CFF8891FF0FC00FE00F40B6
:00000001FF
